:020000040800F2
:1000000000000220351C0008111A0008191A000807
:10001000211A0008291A0008311A000800000000FF
:10002000000000000000000000000000391A000875
:10003000471A000800000000551A0008631A00085B
:10004000851C0008851C0008851C0008851C00080C
:10005000851C0008851C0008851C0008851C0008FC
:10006000851C0008851C0008851C0008851C0008EC
:10007000851C0008851C0008851C0008851C0008DC
:10008000851C0008851C0008711A0008000000008B
:10009000000000000000000000000000851C0008B7
:1000A000851C0008851C0008851C0008851C0008AC
:1000B000851C0008851C0008851C0008851C00089C
:1000C000851C0008851C0008851C0008851C00088C
:1000D000851C0008851C0008851C00080000000025
:1000E000851C0008851C0008851C00080000000015
:1000F000000000000000000000000000851C000857
:1001000000000000851C0008851C0008851C0008F4
:1001100000000000000000000000000000000000DF
:10012000851C0008851C0008851C0008851C00082B
:10013000851C000800000000000000000000000016
:10014000000000000000000000000000851C000806
:10015000851C0008851C0008851C0008851C0008FB
:10016000851C0008851C000800000000000000003D
:10017000000000000000000000000000000000007F
:1001800000000000851C00080000000000000000C6
:08019000851C0008851C000815
:1001A00010B5054C237833B9044B13B10448AFF3B1
:1001B00000800123237010BDD40100200000000046
:1001C0007470000808B5034B1BB103490348AFF333
:1001D000008008BD00000000D801002074700008F5
:1001E00001F0FF01102A2BDB10F0070F08D010F8E8
:1001F000013B013A8B422DD010F0070F42B3F6D1EC
:10020000F0B441EA012141EA014122F007047FF004
:1002100000070023F0E80256083C85EA010586EA5B
:10022000010685FA47F5A3FA87F586FA47F6A5FA97
:1002300087F68EB9EED1F0BC01F0FF0102F00702A3
:1002400032B110F8013B013A83EA010313B1F8D14E
:100250000020704701387047002D06BF354603382F
:10026000073815F0010F07D1013015F4807F02BF68
:10027000013015F4C03F0130F0BC0138704700BFB9
:10028000034613F8012B002AFBD1181A01387047D6
:1002900081F0004102E000BF83F0004330B54FEA37
:1002A00041044FEA430594EA050F08BF90EA020FA4
:1002B0001FBF54EA000C55EA020C7FEA645C7FEA37
:1002C000655C00F0E2804FEA5454D4EB5555B8BF5A
:1002D0006D420CDD2C4480EA020281EA030382EACB
:1002E000000083EA010180EA020281EA0303362D5D
:1002F00088BF30BD11F0004F4FEA01314FF4801C30
:100300004CEA113102D0404261EB410113F0004F41
:100310004FEA03334CEA133302D0524263EB4303F8
:1003200094EA050F00F0A780A4F10104D5F1200E96
:100330000DDB02FA0EFC22FA05F2801841F10001F1
:1003400003FA0EF2801843FA05F359410EE0A5F1C5
:1003500020050EF1200E012A03FA0EFC28BF4CF0F6
:10036000020C43FA05F3C01851EBE37101F00045AC
:1003700007D54FF0000EDCF1000C7EEB00006EEBB9
:100380000101B1F5801F1BD3B1F5001F0CD3490843
:100390005FEA30004FEA3C0C04F101044FEA44529A
:1003A00012F5800F80F09A80BCF1004F08BF5FEA21
:1003B000500C50F1000041EB045141EA050130BD01
:1003C0005FEA4C0C404141EB0101013C28BFB1F513
:1003D000801FE9D291F0000F04BF01460020B1FA5E
:1003E00081F308BF2033A3F10B03B3F120020CDA31
:1003F0000C3208DD02F1140CC2F10C0201FA0CF00F
:1004000021FA02F10CE002F11402D8BFC2F1200C73
:1004100001FA02F120FA0CFCDCBF41EA0C01904029
:10042000E41AA2BF01EB0451294330BD6FEA040472
:100430001F3C1CDA0C340EDC04F11404C4F120025D
:1004400020FA04F001FA02F340EA030021FA04F36F
:1004500045EA030130BDC4F10C04C4F1200220FAC6
:1004600002F001FA04F340EA0300294630BD21FA04
:1004700004F0294630BD94F0000F83F4801306BFCA
:1004800081F480110134013D4EE77FEA645C18BFBE
:100490007FEA655C29D094EA050F08BF90EA020F55
:1004A00005D054EA000C04BF1946104630BD91EA4D
:1004B000030F1EBF0021002030BD5FEA545C05D150
:1004C0004000494128BF41F0004130BD14F580048F
:1004D0003CBF01F5801130BD01F0004545F0FE4103
:1004E00041F470014FF0000030BD7FEA645C1ABF38
:1004F000194610467FEA655C1CBF0B46024650EA6F
:10050000013406BF52EA033591EA030F41F400219A
:1005100030BD00BF90F0000F04BF0021704730B520
:100520004FF4806404F132044FF000054FF00001F5
:1005300050E700BF90F0000F04BF0021704730B5B6
:100540004FF4806404F1320410F0004548BF40428B
:100550004FF000013EE700BF42004FEAE2014FEAE0
:1005600031014FEA02701FBF12F07F4393F07F4FBB
:1005700081F06051704732F07F4208BF704793F0BE
:100580007F4F04BF41F40021704730B54FF46074D1
:1005900001F0004521F000411CE700BF50EA0102D4
:1005A00008BF704730B54FF000050AE050EA01027D
:1005B00008BF704730B511F0004502D5404261EBED
:1005C00041014FF4806404F132045FEA915C3FF42E
:1005D000D8AE4FF003025FEADC0C18BF03325FEACB
:1005E000DC0C18BF033202EBDC02C2F1200300FA7C
:1005F00003FC20FA02F001FA03FE40EA0E0021FAA1
:1006000002F11444BDE600BF70B54FF0FF0C4CF48E
:10061000E06C1CEA11541DBF1CEA135594EA0C0F40
:1006200095EA0C0F00F0DEF82C4481EA030621EA7B
:100630004C5123EA4C5350EA013518BF52EA0335B6
:1006400041F4801143F4801338D0A0FB02CE4FF068
:100650000005E1FB02E506F00042E0FB03E54FF098
:100660000006E1FB03569CF0000F18BF4EF0010E90
:10067000A4F1FF04B6F5007F64F5407404D25FEA8C
:100680004E0E6D4146EB060642EAC62141EA55513F
:100690004FEAC52040EA5E504FEACE2EB4F1FD0C81
:1006A00088BFBCF5E06F1ED8BEF1004F08BF5FEAFF
:1006B000500E50F1000041EB045170BD06F00046B1
:1006C00046EA010140EA020081EA0301B4EB5C045E
:1006D000C2BFD4EB0C0541EA045170BD41F4801156
:1006E0004FF0000E013C00F3AB8014F1360FDEBF7B
:1006F000002001F0004170BDC4F10004203C35DA57
:100700000C341BDC04F11404C4F1200500FA05F3D9
:1007100020FA04F001FA05F240EA020001F000427A
:1007200021F0004110EBD37021FA04F642EB0601F0
:100730005EEA430E08BF20EAD37070BDC4F10C041A
:10074000C4F1200500FA04F320FA05F001FA04F2DE
:1007500040EA020001F0004110EBD37041F10001CA
:100760005EEA430E08BF20EAD37070BDC4F12005D5
:1007700000FA05F24EEA020E20FA04F301FA05F23D
:1007800043EA020321FA04F001F0004121FA04F2E5
:1007900020EA020000EBD3705EEA430E08BF20EAB5
:1007A000D37070BD94F0000F0FD101F000464000EF
:1007B00041EB010111F4801F08BF013CF7D041EA71
:1007C000060195F0000F18BF704703F00046520075
:1007D00043EB030313F4801F08BF013DF7D043EA46
:1007E0000603704794EA0C0F0CEA135518BF95EAFC
:1007F0000C0F0CD050EA410618BF52EA4306D1D183
:1008000081EA030101F000414FF0000070BD50EAA1
:10081000410606BF1046194652EA430619D094EA2B
:100820000C0F02D150EA013613D195EA0C0F05D115
:1008300052EA03361CBF104619460AD181EA030169
:1008400001F0004141F0FE4141F470014FF0000021
:1008500070BD41F0FE4141F4780170BD70B54FF0BC
:10086000FF0C4CF4E06C1CEA11541DBF1CEA13553C
:1008700094EA0C0F95EA0C0F00F0A7F8A4EB05041E
:1008800081EA030E52EA03354FEA013100F0888015
:100890004FEA03334FF0805545EA131343EA1263DE
:1008A0004FEA022245EA111545EA10654FEA002693
:1008B0000EF000419D4208BF964244F1FD0404F54C
:1008C000407402D25B084FEA3202B61A65EB0305A8
:1008D0005B084FEA32024FF480104FF4002CB6EB65
:1008E000020E75EB030E22BFB61A754640EA0C00E5
:1008F0005B084FEA3202B6EB020E75EB030E22BF25
:10090000B61A754640EA5C005B084FEA3202B6EB65
:10091000020E75EB030E22BFB61A754640EA9C0024
:100920005B084FEA3202B6EB020E75EB030E22BFF4
:10093000B61A754640EADC0055EA060E18D04FEAB2
:10094000051545EA16754FEA06164FEAC30343EA52
:1009500052734FEAC2025FEA1C1CC0D111F4801F1F
:100960000BD141EA00014FF000004FF0004CB6E718
:1009700011F4801F04BF01430020B4F1FD0C88BFB7
:10098000BCF5E06F3FF6AFAEB5EB030C04BFB6EBC2
:10099000020C5FEA500C50F1000041EB045170BDB5
:1009A0000EF0004E4EEA113114EB5C04C2BFD4EBE2
:1009B0000C0541EA045170BD41F480114FF0000E66
:1009C000013C90E645EA060E8DE60CEA135594EAE2
:1009D0000C0F08BF95EA0C0F3FF43BAF94EA0C0FE5
:1009E0000AD150EA01347FF434AF95EA0C0F7FF45A
:1009F00025AF104619462CE795EA0C0F06D152EAAE
:100A000003353FF4FDAE1046194622E750EA410691
:100A100018BF52EA43067FF4C5AE50EA41047FF4A2
:100A20000DAF52EA43057FF4EBAE12E74FF0FF3C07
:100A300006E000BF4FF0010C02E000BF4FF0010CD8
:100A40004DF804CD4FEA410C7FEA6C5C4FEA430C51
:100A500018BF7FEA6C5C1BD001B050EA410C0CBFA0
:100A600052EA430C91EA030F02BF90EA020F002002
:100A7000704710F1000F91EA030F58BF994208BF69
:100A800090422CBFD8176FEAE37040F00100704726
:100A90004FEA410C7FEA6C5C02D150EA013C07D17D
:100AA0004FEA430C7FEA6C5CD6D152EA033CD3D0C8
:100AB0005DF8040B704700BF8446104662468C46C2
:100AC0001946634600E000BF01B5FFF7B7FF0028F5
:100AD00048BF10F1000F01BD4DF808EDFFF7F4FF1E
:100AE0000CBF012000205DF808FB00BF4DF808EDA9
:100AF000FFF7EAFF34BF012000205DF808FB00BFCC
:100B00004DF808EDFFF7E0FF94BF012000205DF8ED
:100B100008FB00BF4DF808EDFFF7CEFF94BF0120A2
:100B200000205DF808FB00BF4DF808EDFFF7C4FF9B
:100B300034BF012000205DF808FB00BF4FEA410CE4
:100B40007FEA6C5C02D150EA013C0AD14FEA430CC7
:100B50007FEA6C5C02D152EA033C02D14FF0000004
:100B600070474FF0010070474FEA410212F5001242
:100B700015D211D56FF47873B3EB625212D94FEAE4
:100B8000C12343F0004343EA505311F0004F23FACE
:100B900002F018BF404270474FF00000704750EA23
:100BA000013005D111F0004008BF6FF000407047E0
:100BB0004FF00000704700BF53B94AB9002908BF81
:100BC00000281CBF4FF0FF314FF0FF3000F088B914
:100BD000ADF1080C6DE904CE00F006F8DDF804E094
:100BE000DDE9022304B070472DE9F047089D8E46E9
:100BF00004468846002B4AD18A42174662D9B2FA87
:100C000082F64EB1C6F1200301FA06F820FA03F38A
:100C1000B74043EA0808B4404FEA174E1FFA87FC72
:100C2000B8FBFEF1230C0EFB118843EA084301FBDD
:100C30000CF29A4209D9FB1801F1FF3080F0EA80EA
:100C40009A4240F2E78002393B449A1AA3B2B2FBBF
:100C5000FEF00EFB102243EA024300FB0CFC9C4515
:100C600009D9FB1800F1FF3280F0D6809C4540F294
:100C7000D3803B44023840EA0140A3EB0C0300213F
:100C80001DB1F3400022C5E90032BDE8F0878B4278
:100C900005D90DB1C5E9000100210846F5E7B3FA11
:100CA00083F1002946D1734502D3824200F20581C7
:100CB000841A6EEB030201209046002DE5D0C5E9B1
:100CC0000048E2E7002A00F09080B2FA82F6002E97
:100CD00040F0A4808A1A030C4FEA174E80B2BCB2CF
:100CE0000121B2FBFEFC0EFB1C2243EA024304FB83
:100CF0000CF29A4207D9FB180CF1FF3802D29A4243
:100D000000F2E080C4469B1AB3FBFEF20EFB1233E6
:100D100040EA034302FB04F49C4207D9FB1802F1AA
:100D2000FF3002D29C4200F2CA8002461B1B42EAFC
:100D30000C40A5E7C1F120068B4022FA06F71F43BD
:100D40000EFA01F420FA06F32EFA06FE4FEA1749CE
:100D5000234300FA01F81FFA87FCBEFBF9F01C0CD4
:100D600009FB10EE44EA0E4400FB0CFEA64502FA15
:100D700001F209D93C1900F1FF3A80F09C80A645A8
:100D800040F2998002383C44A4EB0E041FFA83FE23
:100D9000B4FBF9F309FB13444EEA044403FB0CFCD7
:100DA000A44508D93C1903F1FF3E80F08280A44598
:100DB0007FD9023B3C4443EA0040A4EB0C04A0FB77
:100DC00002EC64457346E14662D35FD05DB1B8EB97
:100DD000030264EB090404FA06F622FA01F31E4347
:100DE000CC40C5E9006400214FE7B1FBF2FC010CE7
:100DF00041EA0E4180B240EA01423B4638463C4659
:100E0000B846BE462026B1FBF7F1A2EB080241EA44
:100E10000C4166E7014618E710462CE7C6F12002B0
:100E20002EFA02F3B740B14020FA02F24FEA174E11
:100E30000A43B3FBFEF8BCB20EFB1833110C41EAB7
:100E4000034108FB04F9B04089454FEA104380B2E2
:100E50003ED9791808F1FF3C01D289451FD8A1EB92
:100E60000901B1FBFEF909FB04F80EFB191192B25E
:100E700042EA0142424529D2BA1809F1FF31C4D2EF
:100E80004245C2D2A9F102013A44BEE7F0459DD2E3
:100E9000BEEB02036CEB070C0138E14696E7A7EBCB
:100EA00009094944A8F1020CB1FBFEF909FB04F859
:100EB000DBE773467FE7504666E70846FDE63B44BE
:100EC000023A33E7ACF1020C3B441CE749469CE78D
:100ED000A1EB0901C446B1FBFEF909FB04F8C4E724
:100EE000704700BF80B483B000AF0346FB80FB882F
:100EF00007EE903AF8EEE77AB0EE087A67EE877A76
:100F00009FED067AC7EE876AF0EE667AB0EE670A62
:100F10000C37BD465DF8047B704700BF00F07F458D
:100F200080B485B000AF87ED010AD7ED017AB3EE4A
:100F30000E7AF4EEC77AF1EE10FA01D8002333E00E
:100F4000D7ED017A9FED1B7AF4EEC77AF1EE10FA35
:100F500001DB642328E0D7ED017AB3EE0E7A77EE59
:100F6000C77A9FED157A67EE877AC7ED037AD7EDDA
:100F7000037AF5EEC07AF1EE10FA02D54FF00003D5
:100F8000FB60D7ED037A9FED0D7AF4EEC77AF1EEB0
:100F900010FA01DD0A4BFB60D7ED037AFCEEE77A2D
:100FA000C7ED007A3B78DBB218461437BD465DF8D2
:100FB000047B7047000048439796163F0000C842E4
:100FC0000000C84280B586B000AFF860B9607A60B2
:100FD0003B60F86801F000F903469AB2BB681A80DA
:100FE0007B6801221A70BB681B881846FFF77AFFDE
:100FF000F0EE407A3B68C3ED007A3B68D3ED007AAF
:101000009FED4E7A27EE877AF0EE086AC7EE267AD1
:101010003B6AC3ED007A3B6AD3ED007AB0EE670A13
:10102000FFF77EFF03461A467B6A1A70BB6A444A82
:101030001A60BB6AD3ED007A9FED427A27EE877A79
:10104000DFED416AC7EE267AFB6AC3ED007A7B6A60
:101050001B7807EE903AB8EE677ADFED3C6AC7EE90
:10106000267AB3EE097A67EE877A3B6BC3ED007A96
:101070003B6AD3ED007AB3EE0E7AF4EEC77AF1EE66
:1010800010FA45DD3B6AD3ED007A9FED317AF4EE3C
:10109000C77AF1EE10FA3BD5FB6A93ED007A3B6B11
:1010A000D3ED007AF6EE086A67EEA67AB4EEE77A38
:1010B000F1EE10FA11D57B6A1B780A33BB75BB7D44
:1010C000642B03D97B6A64221A7002E07B6ABA7DC2
:1010D0001A70204804F05CF82CE0FB6A93ED007A6B
:1010E0003B6BD3ED007AF7EE046A67EEA67AB4EEB6
:1010F000E77AF1EE10FA00DC1CE07B6A1B780A3B11
:10110000FB757B6AFA7D1A70134804F041F811E010
:101110003B6AD3ED007A9FED0E7AF4EEC77AF1EEDA
:1011200010FA03DD0D4804F033F803E00C4804F036
:101130002FF8FFE700BF1837BD4680BD008084430D
:10114000CDCCCC3D00007A4400008A420000C84269
:101150000000484390700008B0700008D470000888
:101160000C71000880B582B000AF7860391D4FF077
:10117000FF330122034802F0CFFE7B681846083790
:10118000BD4680BD8C02002080B588B004AF034608
:10119000FB714FF0FF33029301230193FB1D00937A
:1011A00008231222A421084801F064FE0346FB73C1
:1011B000FB7B002B04D0FB791946044803F080FF29
:1011C00000BF1037BD4680BD3802002044710008C2
:1011D00080B500AF00F058FD00F072F800F07AF929
:1011E00000F04EF900F0CCF800F01CF9264800F0B1
:1011F00025FE264B1B78012B42D1254B1B68184638
:10120000FFF7AAF902460B46224803F059FF224B8A
:101210001B681846FFF7A0F902460B461F4803F06B
:101220004FFF1F4B1B7819461E4803F049FF1E4B0A
:101230001B681846FFF790F902460B461B4803F05F
:101240003FFF1B4B1B681846FFF786F902460B460B
:10125000184803F035FF184B1B681846FFF77CF958
:1012600002460B46154803F02BFF084B00221A706C
:101270000B4B1B781846FFF787FF034800F0DEFD95
:10128000642000F073FDB4E7F0010020D6020020D6
:10129000D802002078710008E00200209871000850
:1012A000D7020020C4710008E8020020E87100089D
:1012B000E402002018720008DC0200203C720008E2
:1012C00080B594B000AF07F120033022002118460A
:1012D00004F03EF807F10C0300221A605A609A608D
:1012E000DA601A610023BB60234B1B6C224A43F077
:1012F00080531364204B1B6C03F08053BB60BB68AE
:1013000000237B601D4B1B681C4A43F44043136061
:101310001A4B1B6803F440437B607B6802233B62EB
:101320000123FB6210233B630023BB6307F120030F
:10133000184602F009F90346002B01D000F03EFAEE
:101340000F23FB6000233B6100237B614FF480533C
:10135000BB614FF4A053FB6107F10C030021184659
:1013600002F06AFB0346002B01D000F027FA00BF11
:101370005037BD4680BD00BF0038024000700040BD
:1013800080B584B000AF3B4600221A605A609A6074
:10139000DA60214B214A1A601F4B00225A601E4B13
:1013A00000229A601C4B00221A611B4B00221A7605
:1013B000194B002283F82020174B0022DA62164BCB
:1013C000174A9A62144B0022DA60134B0122DA6149
:1013D000114B002283F830200F4B01225A610E4836
:1013E00000F0E8FC0346002B01D000F0E7F90123F0
:1013F0003B6001237B600023BB603B4619460648E7
:1014000000F00CFF0346002B01D000F0D7F900BF1D
:101410001037BD4680BD00BFF00100200020014014
:101420000100000F80B500AF124B134A1A60114B38
:10143000124A5A600F4B00229A600E4B0022DA606B
:101440000C4B4FF480421A610A4B00225A61094B3F
:1014500000229A61074B0022DA61064B00221A62D1
:10146000044801F0C3FB0346002B01D000F0A6F9AD
:1014700000BF80BD3802002000540040A08601005B
:1014800080B500AF114B124A1A60104B4FF4E13295
:101490005A600E4B00229A600C4B0022DA600B4B14
:1014A00000221A61094B0C225A61084B00229A61F2
:1014B000064B0022DA61054802F0DEFC0346002BF1
:1014C00001D000F07BF900BF80BD00BF8C0200207E
:1014D0000044004080B58CB000AF07F11C0300222F
:1014E0001A605A609A60DA601A610023BB61994BF6
:1014F0001B6B984A43F010031363964B1B6B03F06E
:101500001003BB61BB6900237B61924B1B6B914A4B
:1015100043F0040313638F4B1B6B03F004037B61E5
:101520007B6900233B618B4B1B6B8A4A43F0800332
:101530001363884B1B6B03F080033B613B69002303
:10154000FB60844B1B6B834A43F001031363814BA5
:101550001B6B03F00103FB60FB680023BB607D4B4A
:101560001B6B7C4A43F0020313637A4B1B6B03F043
:101570000203BB60BB6800237B60764B1B6B754A24
:1015800043F008031363734B1B6B03F008037B608A
:101590007B6800220821704801F00EFB0122012126
:1015A0006E4801F009FB00224FF210016C4801F077
:1015B00003FB0423FB6100233B6200237B6207F1F2
:1015C0001C031946644801F073F90823FB610123E9
:1015D0003B6200237B620023BB6207F11C031946B8
:1015E0005D4801F065F93023FB614FF490133B62D5
:1015F00000237B6207F11C031946574801F058F994
:101600000123FB6101233B6200237B620023BB6259
:1016100007F11C031946514801F04AF90823FB6100
:1016200002233B6200237B620023BB620523FB6233
:1016300007F11C031946494801F03AF90123FB61FF
:101640004FF490133B6200237B6207F11C031946A1
:10165000444801F02DF91023FB6102233B62002373
:101660007B620023BB620623FB6207F11C03194661
:101670003C4801F01DF9E023FB6102233B6200239B
:101680007B620323BB620523FB6207F11C0319463F
:10169000344801F00DF94FF4A053FB6102233B6283
:1016A00000237B620023BB620523FB6207F11C035E
:1016B00019462D4801F0FCF84FF21003FB6101239D
:1016C0003B6200237B620023BB6207F11C031946C7
:1016D000234801F0EDF84FF4A453FB6102233B6271
:1016E00000237B620023BB620623FB6207F11C031D
:1016F00019461A4801F0DCF84FF40073FB6100232F
:101700003B6200237B6207F11C031946154801F078
:10171000CFF84FF4E053FB6102233B6200237B626E
:101720000323BB620A23FB6207F11C0319460D4821
:1017300001F0BEF82023FB6100233B6200237B62A3
:1017400007F11C031946064801F0B2F800BF303714
:10175000BD4680BD00380240001002400008024033
:10176000000C0240000002400004024080B588B036
:1017700006AF7860094B0493094B0393094B02931E
:10178000094B0193094B0093094B0A4A0A497868AF
:10179000FFF718FC00BF0837BD4680BDE8020020F7
:1017A000DC020020E4020020D7020020E00200203A
:1017B000D8020020D6020020D402002080B400AF5E
:1017C00072B600BF00BFFDE780B582B000AF002356
:1017D0007B60104B5B6C0F4A43F4804353640D4BAA
:1017E0005B6C03F480437B607B6800233B60094BA8
:1017F0001B6C084A43F080531364064B1B6C03F0C8
:1018000080533B603B68072001F010F800BF0837A9
:10181000BD4680BD0038024080B58AB000AF786018
:1018200007F1140300221A605A609A60DA601A61A4
:101830007B681B681B4A93422FD100233B611A4BE4
:101840005B6C194A43F480735364174B5B6C03F46D
:1018500080733B613B690023FB60134B1B6B124A97
:1018600043F001031363104B1B6B03F00103FB6098
:10187000FB6802237B610323BB610023FB6107F14B
:1018800014031946094801F013F800220021122020
:1018900000F0D7FF122000F0F0FF00BF2837BD4650
:1018A00080BD00BF0020014000380240000002401F
:1018B00080B58AB000AF786007F1140300221A6087
:1018C0005A609A60DA601A617B681B68194A934211
:1018D0002CD100233B61184B1B6B174A43F00203CA
:1018E0001363154B1B6B03F002033B613B694FF421
:1018F00010737B611223BB610123FB6100233B62F8
:1019000004237B6207F1140319460C4800F0D0FF52
:101910000023FB60084B1B6C074A43F4001313645D
:10192000054B1B6C03F40013FB60FB6800BF2837FA
:10193000BD4680BD00540040003802400004024013
:1019400080B58AB000AF786007F1140300221A60F6
:101950005A609A60DA601A617B681B68284A934271
:1019600049D100233B61274B1B6C264A43F40033CB
:101970001364244B1B6C03F400333B613B6900236D
:10198000FB60204B1B6B1F4A43F0010313631D4B8D
:101990001B6B03F00103FB60FB680023BB60194B6A
:1019A0001B6B184A43F008031363164B1B6B03F0C1
:1019B0000803BB60BB6804237B610223BB61002377
:1019C000FB6103233B6207237B6207F11403194683
:1019D0000D4800F06DFF40237B610223BB610023B3
:1019E000FB6103233B6207237B6207F11403194663
:1019F000064800F05DFF00BF2837BD4680BD00BF30
:101A0000004400400038024000000240000C024048
:101A100080B400AF00BFFDE780B400AF00BFFDE7BA
:101A200080B400AF00BFFDE780B400AF00BFFDE7AA
:101A300080B400AF00BFFDE780B400AF00BFBD467B
:101A40005DF8047B704780B400AF00BFBD465DF811
:101A5000047B704780B400AF00BFBD465DF8047BD7
:101A6000704780B500AF00F061F900BF80BD000095
:101A700080B500AF024800F09FFA00BF80BD00BFF4
:101A8000F001002080B400AF01231846BD465DF888
:101A9000047B704780B582B000AF7860396003F096
:101AA000A9FC034616221A604FF0FF331846083788
:101AB000BD4680BD80B582B000AF78604FF0FF3189
:101AC0007868FFF7E7FF00BFFDE780B586B000AF9D
:101AD000F860B9607A6000237B610AE0AFF30080B0
:101AE0000146BB685A1CBA60CAB21A707B690133DE
:101AF0007B617A697B689A42F0DB7B68184618370D
:101B0000BD4680BD80B586B000AFF860B9607A6030
:101B100000237B6109E0BB685A1CBA601B78184639
:101B2000FFF720FB7B6901337B617A697B689A420E
:101B3000F1DB7B6818461837BD4680BD80B483B0A2
:101B400000AF78604FF0FF3318460C37BD465DF8A4
:101B5000047B704780B483B000AF786039603B6825
:101B60004FF400525A60002318460C37BD465DF80A
:101B7000047B704780B483B000AF786001231846BF
:101B80000C37BD465DF8047B704780B485B000AF6C
:101B9000F860B9607A60002318461437BD465DF8D6
:101BA000047B704780B586B000AF7860144A154B4F
:101BB000D31A7B617B693B61134B1B68002B02D1FD
:101BC000114B124A1A60104B1A687B6813443A6929
:101BD0009A4207D203F00EFC03460C221A604FF023
:101BE000FF3309E0084B1B68FB60074B1A687B68F2
:101BF0001344054A1360FB6818461837BD4680BD7C
:101C00000000022000040000EC020020400400203C
:101C100080B400AF064BD3F88830054A43F4700314
:101C2000C2F8883000BFBD465DF8047B704700BF36
:101C300000ED00E0DFF834D0FFF7EAFF0C480D4973
:101C40000D4A002302E0D458C4500433C4188C4217
:101C5000F9D30A4A0A4C002301E013600432A2427D
:101C6000FBD303F0CDFBFFF7B3FA7047000002206F
:101C700000000020D4010020FC750008D4010020E1
:101C800040040020FEE7000080B500AF0E4B1B684B
:101C90000D4A43F4007313600B4B1B680A4A43F46C
:101CA00080631360084B1B68074A43F4807313601A
:101CB000032000F0BBFD002000F008F8FFF784FDD2
:101CC0000023184680BD00BF003C024080B582B0B2
:101CD00000AF7860124B1A68124B1B7819464FF40C
:101CE0007A73B3FBF1F3B2FBF3F3184600F0D3FDC4
:101CF0000346002B01D001230EE07B680F2B0AD88E
:101D0000002279684FF0FF3000F09BFD064A7B68A7
:101D10001360002300E0012318460837BD4680BD4C
:101D200000000020080000200400002080B400AF64
:101D3000064B1B781A46064B1B681344044A136073
:101D400000BFBD465DF8047B704700BF080000205F
:101D5000F002002080B400AF034B1B681846BD465C
:101D60005DF8047B704700BFF002002080B584B0AE
:101D700000AF7860FFF7EEFFB8607B68FB60FB6840
:101D8000B3F1FF3F05D00A4B1B781A46FB6813449A
:101D9000FB6000BFFFF7DEFF0246BB68D31AFA689C
:101DA0009A42F7D800BF00BF1037BD4680BD00BFC4
:101DB0000800002080B584B000AF78600023FB737A
:101DC0007B68002B01D1012333E07B681B6C002B67
:101DD00009D17868FFF720FD7B6800225A647B6890
:101DE000002283F83C207B681B6C03F01003002B5F
:101DF00018D17B681B6C23F4885323F0020343F053
:101E000002027B681A64786800F03AFB7B68002263
:101E10005A647B681B6C23F0030343F001027B6868
:101E20001A6401E00123FB737B68002283F83C20E5
:101E3000FB7B18461037BD4680BD000080B485B0DE
:101E400000AF78600023BB607B6893F83C30012BC7
:101E500001D10223A1E07B68012283F83C207B684A
:101E60001B689B6803F00103012B18D07B681B687B
:101E70009A687B681B6842F001029A604A4B1B68B3
:101E80004A4AA2FB03239A0C13465B001344BB602F
:101E900002E0BB68013BBB60BB68002BF9D17B68EB
:101EA0001B689B6803F00103012B69D17B681B6CE5
:101EB00023F4E06323F0010343F480727B681A6427
:101EC0007B681B685B6803F48063002B07D07B682A
:101ED0001B6C23F4405343F480527B681A647B6884
:101EE0001B6C03F48053B3F5805F06D17B685B6C99
:101EF00023F006027B685A6402E07B6800225A6481
:101F00007B68002283F83C20294BFB607B681B68C0
:101F10006FF022021A607B681B685B687A6812683F
:101F200043F0806343F020035360FB685B6803F079
:101F30001F03002B0FD17B681B689B6803F0405385
:101F4000002B29D17B681B689A687B681B6842F06C
:101F500080429A6020E07B681B68164A93421BD13E
:101F60007B681B689B6803F04053002B14D17B688F
:101F70001B689A687B681B6842F080429A600BE09D
:101F80007B681B6C43F010027B681A647B685B6C97
:101F900043F001027B685A64002318461437BD469B
:101FA0005DF8047B704700BF0000002083DE1B4308
:101FB000002301400020014080B586B000AF78606A
:101FC00000237B6100233B617B681B681B68FB600F
:101FD0007B681B685B68BB60FB6803F002037B6186
:101FE000BB6803F020033B617B69002B49D03B6950
:101FF000002B46D07B681B6C03F01003002B05D12F
:102000007B681B6C43F400727B681A647B681B68F6
:102010009B6803F04053002B2BD17B681B7E002B69
:1020200027D17B681B68DB6A03F47003002B06D0A2
:102030007B681B689B6803F48063002B19D17B6865
:102040001B685A687B681B6822F020025A607B6814
:102050001B6C23F480727B681A647B681B6C03F42E
:102060008053002B05D17B681B6C43F001027B6819
:102070001A647868FFF77AFB7B681B686FF01202BE
:102080001A60FB6803F004037B61BB6803F0800304
:102090003B617B69002B57D03B69002B54D07B6898
:1020A0001B6C03F01003002B05D17B681B6C43F401
:1020B00000527B681A647B681B689B6803F44013BA
:1020C000002B39D17B681B689B6B03F44013002BFA
:1020D00006D07B681B689B6803F48063002B2BD1C0
:1020E0007B681B685B6803F48063002B24D17B68EA
:1020F0001B689B6803F04053002B1DD17B681B7E3F
:10210000002B19D17B681B685A687B681B6822F01A
:1021100080025A607B681B6C23F480527B681A64CF
:102120007B681B6C03F48073002B05D17B681B6CF0
:1021300043F001027B681A64786800F09DFA7B68BE
:102140001B686FF00C021A60FB6803F001037B61EF
:10215000BB6803F040033B617B69002B17D03B69F0
:10216000002B14D07B681B681B6803F00103012B54
:102170000DD17B681B6C43F480327B681A647868ED
:1021800000F037F87B681B686FF001021A60FB688B
:1021900003F020037B61BB6803F080633B617B69D4
:1021A000002B15D03B69002B12D07B685B6C43F091
:1021B00002027B685A647B681B686FF020021A6019
:1021C000786800F020F87B681B686FF020021A60C6
:1021D00000BF1837BD4680BD80B483B000AF7860C3
:1021E0007B681B68DB6C18460C37BD465DF8047BCA
:1021F000704780B483B000AF786000BF0C37BD4635
:102200005DF8047B704780B483B000AF786000BF96
:102210000C37BD465DF8047B7047000080B485B084
:1022200000AF786039600023BB607B6893F83C3076
:10223000012B01D1022313E17B68012283F83C20AA
:102240003B681B68092B25D97B681B68D9683B68EC
:102250001B689BB21A4613465B0013441E3B0722C1
:1022600002FA03F3DA437B681B680A40DA607B6892
:102270001B68D9683B689A683B681B689BB2184624
:1022800003465B0003441E3B9A407B681B680A437D
:10229000DA6022E07B681B6819693B681B689BB2A7
:1022A0001A4613465B001344072202FA03F3DA438B
:1022B0007B681B680A401A617B681B6819693B6868
:1022C0009A683B681B689BB2184603465B00034450
:1022D0009A407B681B680A431A613B685B68062B5F
:1022E00024D87B681B68596B3B685A6813469B006F
:1022F0001344053B1F2202FA03F3DA437B681B6891
:102300000A405A637B681B68596B3B681B689BB229
:1023100018463B685A6813469B001344053B00FA75
:1023200003F27B681B680A435A634CE03B685B68B6
:102330000C2B24D87B681B68196B3B685A681346C2
:102340009B001344233B1F2202FA03F3DA437B680A
:102350001B680A401A637B681B68196B3B681B6823
:102360009BB218463B685A6813469B001344233BB4
:1023700000FA03F27B681B680A431A6323E07B6858
:102380001B68D96A3B685A6813469B001344413B5B
:102390001F2202FA03F3DA437B681B680A40DA6201
:1023A0007B681B68D96A3B681B689BB218463B6810
:1023B0005A6813469B001344413B00FA03F27B68C2
:1023C0001B680A43DA62294BFB607B681B68284A5A
:1023D00093420FD13B681B68122B0BD1FB685B68E3
:1023E00023F40002FB685A60FB685B6843F48002D8
:1023F000FB685A607B681B681D4A93422BD13B687F
:102400001B681C4A934203D03B681B68112B22D1E6
:10241000FB685B6823F48002FB685A60FB685B68BA
:1024200043F40002FB685A603B681B68114A934200
:1024300011D1114B1B68114AA2FB03239A0C1346BE
:102440009B0013445B00BB6002E0BB68013BBB60C8
:10245000BB68002BF9D17B68002283F83C20002365
:1024600018461437BD465DF8047B704700230140D1
:1024700000200140120000100000002083DE1B43FA
:1024800080B485B000AF7860794BFB60FB685B6817
:1024900023F44032FB685A60FB685A687B685B68CB
:1024A0001A43FB685A607B681B685A687B681B6824
:1024B00022F480725A607B681B6859687B681B69CC
:1024C0001A027B681B680A435A607B681B685A685B
:1024D0007B681B6822F040725A607B681B685968F1
:1024E0007B689A687B681B680A435A607B681B6834
:1024F0009A687B681B6822F400629A607B681B689C
:1025000099687B68DA687B681B680A439A607B6815
:102510009B6A584A934222D07B681B689A687B6802
:102520001B6822F070629A607B681B6899687B6800
:102530009A6A7B681B680A439A607B681B689A6882
:102540007B681B6822F040529A607B681B68996820
:102550007B68DA6A7B681B680A439A600FE07B68D5
:102560001B689A687B681B6822F070629A607B68BF
:102570001B689A687B681B6822F040529A607B68EF
:102580001B689A687B681B6822F002029A607B686D
:102590001B6899687B681B7E5A007B681B680A432E
:1025A0009A607B6893F82030002B1BD07B681B68F7
:1025B0005A687B681B6842F400625A607B681B683B
:1025C0005A687B681B6822F460425A607B681B680B
:1025D00059687B685B6A013B5A037B681B680A4346
:1025E0005A6007E07B681B685A687B681B6822F4A6
:1025F00000625A607B681B68DA6A7B681B6822F499
:102600007002DA627B681B68D96A7B68DB69013B10
:102610001A057B681B680A43DA627B681B689A6844
:102620007B681B6822F400729A607B681B6899685B
:102630007B6893F830305A027B681B680A439A60C3
:102640007B681B689A687B681B6822F480629A60CA
:102650007B681B6899687B685B699A027B681B686A
:102660000A439A6000BF1437BD465DF8047B70478B
:10267000002301400100000F80B483B000AF7860F8
:1026800000BF0C37BD465DF8047B704780B485B051
:1026900000AF78607B6803F00703FB600C4BDB68DE
:1026A000BB60BA684FF6FF031340BB60FB681A02B9
:1026B000BB68134343F0BF6343F40033BB60044A79
:1026C000BB68D36000BF1437BD465DF8047B70471C
:1026D00000ED00E080B400AF044BDB681B0A03F0A0
:1026E00007031846BD465DF8047B704700ED00E027
:1026F00080B483B000AF0346FB7197F90730002B1D
:102700000BDBFB7903F01F02074997F907305B09E0
:10271000012000FA02F241F8232000BF0C37BD4629
:102720005DF8047B704700BF00E100E080B483B037
:1027300000AF03463960FB7197F90730002B0ADBC5
:102740003B68DAB20C4997F907301201D2B20B4458
:1027500083F800230AE03B68DAB20849FB7903F00A
:102760000F03043B1201D2B20B441A7600BF0C37A0
:10277000BD465DF8047B704700E100E000ED00E03D
:1027800080B489B000AFF860B9607A60FB6803F08C
:102790000703FB61FB69C3F10703042B28BF042374
:1027A000BB61FB690433062B02D9FB69033B00E0E4
:1027B00000237B614FF0FF32BB6902FA03F3DA4377
:1027C000BB681A407B699A404FF0FF317B6901FA80
:1027D00003F3D9437B680B40134318462437BD46A7
:1027E0005DF8047B7047000080B582B000AF786070
:1027F0007B68013BB3F1807F01D301230FE00A4ADC
:102800007B68013B53600F214FF0FF30FFF78EFFD5
:10281000054B00229A60044B07221A6000231846D9
:102820000837BD4680BD00BF10E000E080B582B033
:1028300000AF78607868FFF729FF00BF0837BD4612
:1028400080BD80B586B000AF0346B9607A60FB7387
:1028500000237B61FFF73EFF78617A68B968786989
:10286000FFF78EFF024697F90F3011461846FFF723
:102870005DFF00BF1837BD4680BD80B582B000AF98
:102880000346FB7197F907301846FFF731FF00BF89
:102890000837BD4680BD80B582B000AF78607868EB
:1028A000FFF7A2FF034618460837BD4680BD00006B
:1028B00080B489B000AF7860396000237B61002369
:1028C0003B610023BB610023FB6159E10122FB69ED
:1028D00002FA03F37B613B681B687A6913403B6132
:1028E0003A697B699A4240F048813B685B6803F033
:1028F0000303012B05D03B685B6803F00303022B45
:1029000030D17B689B68BB61FB695B00032202FAE4
:1029100003F3DB43BA691340BB613B68DA68FB69C8
:102920005B0002FA03F3BA691343BB617B68BA69BF
:102930009A607B685B68BB610122FB6902FA03F362
:10294000DB43BA691340BB613B685B681B0903F05A
:102950000102FB6902FA03F3BA691343BB617B68A6
:10296000BA695A603B685B6803F00303032B17D016
:102970007B68DB68BB61FB695B00032202FA03F33F
:10298000DB43BA691340BB613B689A68FB695B0033
:1029900002FA03F3BA691343BB617B68BA69DA6070
:1029A0003B685B6803F00303022B23D1FB69DA0861
:1029B0007B68083253F82230BB61FB6903F00703E0
:1029C0009B000F2202FA03F3DB43BA691340BB6199
:1029D0003B681A69FB6903F007039B0002FA03F3E3
:1029E000BA691343BB61FB69DA087B680832B969CD
:1029F00043F822107B681B68BB61FB695B00032204
:102A000002FA03F3DB43BA691340BB613B685B68BE
:102A100003F00302FB695B0002FA03F3BA69134394
:102A2000BB617B68BA691A603B685B6803F440333A
:102A3000002B00F0A2800023FB60574B5B6C564AD2
:102A400043F480435364544B5B6C03F48043FB605A
:102A5000FB68524AFB699B08023352F82330BB6182
:102A6000FB6903F003039B000F2202FA03F3DB432D
:102A7000BA691340BB617B68494A934219D07B68AD
:102A8000484A934213D07B68474A93420DD07B68F3
:102A9000464A934207D07B68454A934201D10423BA
:102AA00008E0072306E0032304E0022302E00123F9
:102AB00000E00023FA6902F0030292009340BA6931
:102AC0001343BB613549FB699B080233BA6941F87E
:102AD0002320384B9B68BB613B69DB43BA691340D9
:102AE000BB613B685B6803F48013002B03D0BA69B9
:102AF0003B691343BB612F4ABB6993602D4BDB6875
:102B0000BB613B69DB43BA691340BB613B685B68EF
:102B100003F40013002B03D0BA693B691343BB6174
:102B2000244ABB69D360234B5B68BB613B69DB43D1
:102B3000BA691340BB613B685B6803F40033002B48
:102B400003D0BA693B691343BB611A4ABB6953603E
:102B5000184B1B68BB613B69DB43BA691340BB611F
:102B60003B685B6803F48033002B03D0BA693B6990
:102B70001343BB610F4ABB691360FB690133FB61FF
:102B8000FB690F2B7FF6A2AE00BF00BF2437BD4606
:102B90005DF8047B704700BF0038024000380140F8
:102BA000000002400004024000080240000C024005
:102BB00000100240003C014080B483B000AF786058
:102BC0000B467B8013467B707B78002B03D07A8882
:102BD0007B689A6103E07B881A047B689A6100BF76
:102BE0000C37BD465DF8047B7047000080B584B0AB
:102BF00000AF78607B68002B01D101232BE17B685B
:102C000093F83D30DBB2002B06D17B68002283F8BD
:102C10003C207868FEF74CFE7B68242283F83D2038
:102C20007B681B681A687B681B6822F001021A60C7
:102C30007B681B681A687B681B6842F400421A6054
:102C40007B681B681A687B681B6822F400421A6064
:102C500001F0EAF8F8607B685B68814A934207D824
:102C6000FB68804A934294BF01230023DBB206E055
:102C7000FB687D4A934294BF01230023DBB2002B03
:102C800001D00123E7E0FB68784AA2FB03239B0CF9
:102C9000BB607B681B685B6823F03F017B681B6837
:102CA000BA680A435A607B681B681B6A23F03F01BD
:102CB0007B685B686A4A934202D8BB68013309E0CB
:102CC000BB684FF4967202FB03F3694AA2FB03232D
:102CD0009B0901337A6812680B4313627B681B6897
:102CE000DB6923F44F4222F0FF027B685B685C499A
:102CF0008B4219D8FB68591E7B685B685B00B1FB8F
:102D0000F3F3591C40F6FC730B40002B0AD0FB6810
:102D1000591E7B685B685B00B1FBF3F30133C3F3BF
:102D20000B0351E004234FE07B689B68002B11D11B
:102D3000FB68581E7B6859680B465B000B44B0FB70
:102D4000F3F30133C3F30B03002B0CBF0123002368
:102D5000DBB212E0FB68581E7B6859680B469B008B
:102D60000B4499000B44B0FBF3F30133C3F30B03A3
:102D7000002B0CBF01230023DBB2002B01D0012369
:102D800022E07B689B68002B0ED1FB68581E7B6895
:102D900059680B465B000B44B0FBF3F30133C3F3FC
:102DA0000B0343F400430FE0FB68581E7B6859682F
:102DB0000B469B000B4499000B44B0FBF3F301332B
:102DC000C3F30B0343F44043796809681343CB61B1
:102DD0007B681B681B6823F0C0017B68DA697B682D
:102DE0001B6A1A437B681B680A431A607B681B686E
:102DF0009B6823F4034323F0FF037A6811697A6820
:102E0000D26811437A6812680B4393607B681B6831
:102E1000DB6823F0FF017B685A697B689B691A4372
:102E20007B681B680A43DA607B681B681A687B68EA
:102E30001B6842F001021A607B6800221A647B68FA
:102E4000202283F83D207B6800221A637B680022E1
:102E500083F83E20002318461037BD4680BD00BFD2
:102E6000A08601007F841E00FF083D0083DE1B4317
:102E7000D34D621080B588B002AFF86008461146A5
:102E80001A4603467B810B463B811346FB80FEF7C7
:102E900061FF7861FB6893F83D30DBB2202B40F096
:102EA000D9807B690093192301226D49F86800F0ED
:102EB00071F90346002B01D00223CCE0FB6893F8A4
:102EC0003C30012B01D10223C5E0FB68012283F8CD
:102ED0003C20FB681B681B6803F00103012B07D033
:102EE000FB681B681A68FB681B6842F001021A60E5
:102EF000FB681B681A68FB681B6822F400621A6092
:102F0000FB68212283F83D20FB68402283F83E20A5
:102F1000FB6800221A64FB683A6A5A62FB68BA8C42
:102F20005A85FB685B8D9AB2FB681A85FB684D4A2F
:102F3000DA62F8883A8979897B690193BB6A0093E0
:102F40000346F86800F090F80346002B52D00123A6
:102F500081E07A69B96AF86800F036FA0346002B16
:102F60000DD0FB681B6C042B07D1FB681B681A682B
:102F7000FB681B6842F400721A6001236BE0FB6877
:102F80005B6A1A78FB681B681A61FB685B6A5A1CEB
:102F9000FB685A62FB681B8D013B9AB2FB681A857D
:102FA000FB685B8D9BB2013B9AB2FB685A85FB685C
:102FB0001B685B6903F00403042B1BD1FB681B8DAA
:102FC000002B17D0FB685B6A1A78FB681B681A61D4
:102FD000FB685B6A5A1CFB685A62FB681B8D013BED
:102FE0009AB2FB681A85FB685B8D9BB2013B9AB273
:102FF000FB685A85FB681B8D002BAAD17A69B96AD8
:10300000F86800F029FA0346002B0DD0FB681B6C12
:10301000042B07D1FB681B681A68FB681B6842F425
:1030200000721A60012316E0FB681B681A68FB68CF
:103030001B6842F400721A60FB68202283F83D206E
:10304000FB68002283F83E20FB68002283F83C20C6
:10305000002300E0022318461837BD4680BD00BF9C
:10306000020010000000FFFF80B588B002AFF860DA
:10307000084611461A4603467B810B463B811346A0
:10308000FB80FB681B681A68FB681B6842F480724F
:103090001A607B6A00933B6A00224FF00111F868C6
:1030A00000F078F80346002B0DD0FB681B681B6806
:1030B00003F48073B3F5807F03D1FB684FF4007293
:1030C0001A6403235FE07B89DBB21A46FB681B6846
:1030D00002F0FE021A617B6A3A6A2D49F86800F034
:1030E000D3F80346002B01D001234CE000237B6181
:1030F000FB681B685B697B61FB681B689B697B6184
:103100007B697A6A396AF86800F05EF90346002B39
:103110000DD0FB681B6C042B07D1FB681B681A6879
:10312000FB681B6842F400721A6001232BE0FB88E5
:10313000012B05D13B89DAB2FB681B681A6121E0DB
:103140003B891B0A9BB2DAB2FB681B681A617A6A78
:10315000396AF86800F038F90346002B0DD0FB6897
:103160001B6C042B07D1FB681B681A68FB681B6883
:1031700042F400721A60012305E03B89DAB2FB6871
:103180001B681A61002318461837BD4680BD00BF72
:103190000200010080B584B000AFF860B9603B6008
:1031A0001346FB7148E03B68B3F1FF3F44D0FEF7A4
:1031B000D1FD0246BB69D31A3A689A4202D33B68F2
:1031C000002B39D1BB681B0CDBB2012B0DD1FB6886
:1031D0001B685B69DA43BB6813409BB2002B0CBFD2
:1031E00001230023DBB21A460CE0FB681B689B69D5
:1031F000DA43BB6813409BB2002B0CBF01230023B2
:10320000DBB21A46FB799A4216D1FB6800221A6398
:10321000FB68202283F83D20FB68002283F83E20D3
:10322000FB681B6C43F02002FB681A64FB680022F9
:1032300083F83C20012323E0BB681B0CDBB2012B8D
:103240000DD1FB681B685B69DA43BB6813409BB216
:10325000002B0CBF01230023DBB21A460CE0FB68F5
:103260001B689B69DA43BB6813409BB2002B0CBF01
:1032700001230023DBB21A46FB799A4293D0002344
:1032800018461037BD4680BD80B584B000AFF860E9
:10329000B9607A603B6071E0FB681B685B6903F4AE
:1032A0008063B3F5806F23D1FB681B681A68FB68E5
:1032B0001B6842F400721A60FB681B686FF480623E
:1032C0005A61FB6800221A63FB68202283F83D20C4
:1032D000FB68002283F83E20FB681B6C43F004026D
:1032E000FB681A64FB68002283F83C20012367E036
:1032F0007B68B3F1FF3F41D0FEF72CFD02463B68EF
:10330000D31A7A689A4202D37B68002B36D1BB6805
:103310001B0CDBB2012B0CD1FB681B685B69DA4329
:10332000BB6813409BB2002B14BF01230023DBB208
:103330000BE0FB681B689B69DA43BB6813409BB2D8
:10334000002B14BF01230023DBB2002B16D0FB6837
:1033500000221A63FB68202283F83D20FB680022CC
:1033600083F83E20FB681B6C43F02002FB681A6464
:10337000FB68002283F83C20012321E0BB681B0C82
:10338000DBB2012B0CD1FB681B685B69DA43BB68BD
:1033900013409BB2002B14BF01230023DBB20BE0D0
:1033A000FB681B689B69DA43BB6813409BB2002B28
:1033B00014BF01230023DBB2002B7FF46DAF002389
:1033C00018461037BD4680BD80B584B000AFF860A8
:1033D000B9607A6034E0F86800F086F80346002BA4
:1033E00001D0012334E0BB68B3F1FF3F28D0FEF7E2
:1033F000B1FC02467B68D31ABA689A4202D3BB6812
:10340000002B1DD1FB681B685B6903F08003802BD8
:1034100016D0FB6800221A63FB68202283F83D2047
:10342000FB68002283F83E20FB681B6C43F02002FF
:10343000FB681A64FB68002283F83C20012307E044
:10344000FB681B685B6903F08003802BC3D10023FA
:1034500018461037BD4680BD80B584B000AFF86017
:10346000B9607A6034E0F86800F03EF80346002B5B
:1034700001D0012334E0BB68B3F1FF3F28D0FEF751
:1034800069FC02467B68D31ABA689A4202D3BB68C9
:10349000002B1DD1FB681B685B6903F00403042B40
:1034A00016D0FB6800221A63FB68202283F83D20B7
:1034B000FB68002283F83E20FB681B6C43F020026F
:1034C000FB681A64FB68002283F83C20012307E0B4
:1034D000FB681B685B6903F00403042BC3D1002362
:1034E00018461037BD4680BD80B483B000AF786009
:1034F0007B681B685B6903F48063B3F5806F1BD145
:103500007B681B686FF480625A617B6800221A63D3
:103510007B68202283F83D207B68002283F83E20D0
:103520007B681B6C43F004027B681A647B68002292
:1035300083F83C20012300E0002318460C37BD46E9
:103540005DF8047B7047000080B586B000AF7860FE
:103550007B68002B01D1012367E27B681B6803F0C5
:103560000103002B75D0884B9B6803F00C03042BE0
:103570000CD0854B9B6803F00C03082B12D1824BB7
:103580005B6803F48003B3F5800F0BD17E4B1B689F
:1035900003F40033002B5BD07B685B68002B57D1B2
:1035A000012342E27B685B68B3F5803F06D1764B2E
:1035B0001B68754A43F4803313601DE07B685B68C9
:1035C000B3F5A02F0CD1704B1B686F4A43F48023D6
:1035D00013606D4B1B686C4A43F4803313600BE03F
:1035E000694B1B68684A23F480331360664B1B6881
:1035F000654A23F4802313607B685B68002B13D03B
:10360000FEF7A8FB386108E0FEF7A4FB02463B6921
:10361000D31A642B01D9032307E25B4B1B6803F425
:103620000033002BF0D014E0FEF794FB386108E083
:10363000FEF790FB02463B69D31A642B01D90323A2
:10364000F3E1514B1B6803F40033002BF0D100E091
:1036500000BF7B681B6803F00203002B63D04A4B5A
:103660009B6803F00C03002B0BD0474B9B6803F0C7
:103670000C03082B1CD1444B5B6803F48003002B24
:1036800016D1414B1B6803F00203002B05D07B6869
:10369000DB68012B01D00123C7E13B4B1B6823F002
:1036A000F8027B681B69DB00374913430B603AE083
:1036B0007B68DB68002B20D0344B01221A60FEF7B8
:1036C00049FB386108E0FEF745FB02463B69D31A27
:1036D000022B01D90323A8E12B4B1B6803F0020343
:1036E000002BF0D0284B1B6823F0F8027B681B6985
:1036F000DB00254913430B6015E0244B00221A60C0
:10370000FEF728FB386108E0FEF724FB02463B6920
:10371000D31A022B01D9032387E11B4B1B6803F04B
:103720000203002BF0D17B681B6803F00803002B19
:1037300036D07B685B69002B16D0154B01221A60CE
:10374000FEF708FB386108E0FEF704FB02463B6920
:10375000D31A022B01D9032367E10B4B5B6F03F0F4
:103760000203002BF0D01BE0094B00221A60FEF789
:10377000F1FA38610EE0FEF7EDFA02463B69D31A22
:10378000022B07D9032350E10038024000004742D2
:10379000800E4742884B5B6F03F00203002BEAD197
:1037A0007B681B6803F00403002B00F09780002364
:1037B000FB75814B1B6C03F08053002B0FD1002352
:1037C000BB607D4B1B6C7C4A43F0805313647A4B87
:1037D0001B6C03F08053BB60BB680123FB75774B08
:1037E0001B6803F48073002B18D1744B1B68734A59
:1037F00043F480731360FEF7ADFA386108E0FEF71A
:10380000A9FA02463B69D31A022B01D903230CE122
:103810006A4B1B6803F48073002BF0D07B689B68B5
:10382000012B06D1644B1B6F634A43F001031367FE
:103830001CE07B689B68052B0CD15F4B1B6F5E4ABD
:1038400043F0040313675C4B1B6F5B4A43F00103B7
:1038500013670BE0584B1B6F574A23F001031367A4
:10386000554B1B6F544A23F0040313677B689B6816
:10387000002B15D0FEF76EFA38610AE0FEF76AFAFF
:1038800002463B69D31A41F28832934201D903239D
:10389000CBE0494B1B6F03F00203002BEED014E08A
:1038A000FEF758FA38610AE0FEF754FA02463B691F
:1038B000D31A41F28832934201D90323B5E03E4B3B
:1038C0001B6F03F00203002BEED1FB7D012B05D112
:1038D000394B1B6C384A23F0805313647B689B6917
:1038E000002B00F0A180344B9B6803F00C03082BE5
:1038F0005CD07B689B69022B41D1314B00221A605E
:10390000FEF728FA386108E0FEF724FA02463B6920
:10391000D31A022B01D9032387E0274B1B6803F03E
:103920000073002BF0D17B68DA697B681B6A1A434D
:103930007B685B6A9B011A437B689B6A5B08013B5F
:103940001B041A437B68DB6A1B061B4913434B604D
:103950001B4B01221A60FEF7FDF9386108E0FEF703
:10396000F9F902463B69D31A022B01D903235CE023
:10397000114B1B6803F00073002BF0D054E0104B88
:1039800000221A60FEF7E6F9386108E0FEF7E2F976
:1039900002463B69D31A022B01D9032345E0064BAB
:1039A0001B6803F00073002BF0D13DE07B689B693E
:1039B000012B07D1012338E000380240007000409D
:1039C000600047421B4B5B68FB607B689B69012B77
:1039D00028D0FB6803F480027B68DB699A4221D11E
:1039E000FB6803F03F027B681B6A9A421AD1FA68AF
:1039F00047F6C07313407A68526A9201934211D11C
:103A0000FB6803F440327B689B6A5B08013B1B0444
:103A10009A4207D1FB6803F070627B68DB6A1B0681
:103A20009A4201D0012300E0002318461837BD4612
:103A300080BD00BF0038024080B584B000AF786020
:103A400039607B68002B01D10123CCE0684B1B68F7
:103A500003F007033A689A420CD9654B3A68D2B230
:103A60001A70634B1B6803F007033A689A4201D04F
:103A70000123B8E07B681B6803F00203002B20D011
:103A80007B681B6803F00403002B05D0594B9B682F
:103A9000584A43F4E05393607B681B6803F00803C3
:103AA000002B05D0534B9B68524A43F4604393600C
:103AB000504B9B6823F0F0027B689B684D49134391
:103AC0008B607B681B6803F00103002B44D07B688C
:103AD0005B68012B07D1474B1B6803F40033002BB5
:103AE00019D101237FE07B685B68022B03D07B68E0
:103AF0005B68032B07D13F4B1B6803F00073002B5F
:103B000009D101236FE03B4B1B6803F00203002B3C
:103B100001D1012367E0374B9B6823F003027B68E8
:103B20005B68344913438B60FEF714F9F8600AE0D0
:103B3000FEF710F90246FB68D31A41F2883293422D
:103B400001D903234FE02B4B9B6803F00C027B68E9
:103B50005B689B009A42EBD1254B1B6803F007037F
:103B60003A689A420CD2224B3A68D2B21A70204B71
:103B70001B6803F007033A689A4201D0012332E040
:103B80007B681B6803F00403002B08D0194B9B686B
:103B900023F4E0527B68DB68164913438B607B6833
:103BA0001B6803F00803002B09D0124B9B6823F419
:103BB00060427B681B69DB000E4913438B6000F099
:103BC00021F802460B4B9B681B0903F00F030A49BF
:103BD000CB5C22FA03F3094A1360094B1B681846B1
:103BE000FEF774F8002318461037BD4680BD00BFAD
:103BF000003C0240003802405C72000800000020D7
:103C0000040000202DE9B04F94B000AF00237B6486
:103C10000023FB6400233B640023BB64794B9B6857
:103C200003F00C03082B0DD0082B00F2E180002BD1
:103C300002D0042B03D0DBE0734BBB64DBE0734B9F
:103C4000BB64D8E06F4B5B6803F03F037B646D4B54
:103C50005B6803F48003002B63D06A4B5B689B09AD
:103C60000022BB63FA63BB6BC3F308033B6300230F
:103C70007B63D7E90C4522462B464FF000004FF0FE
:103C80000001590141EAD261500102460B4621462A
:103C9000511A3961294663EB01037B614FF0000241
:103CA0004FF00003D7E904AB59468B01514643EA74
:103CB000916351468A015146B2EB0108594663EBC4
:103CC00001094FF000024FF000034FEAC90343EA35
:103CD00058734FEAC80290469946234618EB0303EF
:103CE000BB602B4649EB0303FB604FF000024FF033
:103CF0000003D7E9024529464B02214643EAD15346
:103D000021464A02104619467B6C0022BB62FA62C9
:103D1000D7E90A23FCF750FF02460B461346FB6423
:103D200058E0384B5B689B09002218461146C0F3E7
:103D300008033B6200237B62D7E9088942464B4671
:103D40004FF000004FF00001590141EAD2615001EB
:103D500002460B464146B2EB010A494663EB010BB2
:103D60004FF000024FF000034FEA8B1343EA9A63CF
:103D70004FEA8A12B2EB0A0463EB0B054FF0000224
:103D80004FF00003EB0043EA5473E20014461D4673
:103D90004346E3183B604B4645EB03037B604FF023
:103DA00000024FF00003D7E9004529468B02214667
:103DB00043EA915321468A02104619467B6C002241
:103DC000BB61FA61D7E90623FCF7F6FE02460B4613
:103DD0001346FB640B4B5B681B0C03F003030133BE
:103DE0005B003B64FA6C3B6CB2FBF3F3BB6402E038
:103DF000054BBB6400BFBB6C18465037BD46BDE8E1
:103E0000B08F00BF003802400024F40000127A0096
:103E100080B400AF034B1B681846BD465DF8047BB9
:103E2000704700BF0000002080B500AFFFF7F0FF33
:103E30000246054B9B689B0A03F007030349CB5CD2
:103E400022FA03F3184680BD003802406C72000865
:103E500080B500AFFFF7DCFF0246054B9B685B0BAC
:103E600003F007030349CB5C22FA03F3184680BD35
:103E7000003802406C72000880B582B000AF7860F4
:103E80007B68002B01D1012342E07B6893F841302D
:103E9000DBB2002B06D17B68002283F840207868D3
:103EA000FDF74EFD7B68242283F841207B681B6868
:103EB000DA687B681B6822F40052DA60786800F0E8
:103EC00073F97B681B681A697B681B6822F490424F
:103ED0001A617B681B685A697B681B6822F02A029A
:103EE0005A617B681B68DA687B681B6842F4005281
:103EF000DA607B6800225A647B68202283F84120C4
:103F00007B68202283F842207B6800225A630023CA
:103F100018460837BD4680BD80B58AB002AFF8604C
:103F2000B9603B601346FB8000237B61FB6893F81C
:103F30004130DBB2202B75D1BB68002B02D0FB884F
:103F4000002B01D101236EE0FB6800225A64FB685C
:103F5000212283F84120FDF7FDFE7861FB68FA8895
:103F60009A84FB68FA88DA84FB689B68B3F5805F03
:103F700008D1FB681B69002B04D10023FB61BB68DF
:103F8000BB6103E0BB68FB610023BB612EE03B68C3
:103F900000937B6900228021F86800F048F803460E
:103FA000002B05D0FB68202283F8412003233AE050
:103FB000FB69002B0BD1BB691B881A46FB681B6889
:103FC000C2F308025A60BB690233BB6107E0FB69B8
:103FD0001A78FB681B685A60FB690133FB61FB6858
:103FE000DB8C9BB2013B9AB2FB68DA84FB68DB8C0A
:103FF0009BB2002BCBD13B6800937B690022402110
:10400000F86800F014F80346002B05D0FB68202266
:1040100083F84120032306E0FB68202283F8412037
:10402000002300E0022318462037BD4680BD80B53E
:1040300086B000AFF860B9603B601346FB713BE0AF
:104040003B6AB3F1FF3F37D0FDF784FE02463B6881
:10405000D31A3A6A9A4202D33B6A002B01D1032356
:104060003AE0FB681B68DB6803F00403002B23D0F5
:10407000BB68802B20D0BB68402B1DD0FB681B6821
:104080001B6803F00803082B16D100237B61FB6833
:104090001B681B687B61FB681B685B687B617B69D5
:1040A000F86800F01DF8FB6808225A64FB680022DB
:1040B00083F8402001230FE0FB681B681A68BB6887
:1040C0001340BA689A420CBF01230023DBB21A46A0
:1040D000FB799A42B4D0002318461837BD4680BDFC
:1040E00080B495B000AF78607B681B680C337B634D
:1040F0007B6B53E8003F3B633B6B23F49073FB64A3
:104100007B681B680C33FA6C3A64FB63F96B3A6C9E
:1041100041E80023BB63BB6B002BE5D17B681B68C8
:1041200014333B623B6A53E8003FFB61FB6923F0B9
:104130000103BB647B681B681433BA6CFA62BB6210
:10414000B96AFA6A41E800237B627B6A002BE5D1F9
:104150007B681B6B012B19D17B681B680C33FB60E0
:10416000FB6853E8003FBB60BB6823F010037B642F
:104170007B681B680C337A6CBA617B617969BA69B8
:1041800041E800233B613B69002BE5D17B6820229D
:1041900083F842207B6800221A6300BF5437BD4673
:1041A0005DF8047B704700002DE9B04FC0B000AF50
:1041B000C7F8F400D7F8F4301B681B6923F44050AB
:1041C000D7F8F430D968D7F8F4301A6840EA010318
:1041D0001361D7F8F4309A68D7F8F4301B691A43A2
:1041E000D7F8F4305B691A43D7F8F430DB6913432E
:1041F000C7F8F830D7F8F4301B68DB6823F41641B1
:1042000021F00C01D7F8F4301A68D7F8F8300B43D6
:10421000D360D7F8F4301B685B6923F44070D7F89B
:10422000F4309969D7F8F4301A6840EA0103536111
:10423000D7F8F4301A688F4B9A4205D0D7F8F4308B
:104240001A688D4B9A4204D1FFF702FEC7F8FC00B2
:1042500003E0FFF7E9FDC7F8FC00D7F8F430DB69AD
:10426000B3F5004F40F00C81D7F8FC300022C7F8BE
:10427000E830C7F8EC20D7E93A4522462B4691189A
:10428000B9655B41FB65D7E91623214612EB0108AE
:10429000294643EB01094FF000024FF000034FEABB
:1042A000C90343EA58734FEAC80290469946234629
:1042B00018EB0303C7F8E0302B4649EB0303C7F8BC
:1042C000E430D7F8F4305B680022C7F8D830C7F87C
:1042D000DC20D7E936120B46DB183B65134642EB70
:1042E00003037B65D7E91423D7E93801FCF764FCA5
:1042F00002460B46614BA3FB02235B091C01D7F866
:10430000FC300022C7F8D030C7F8D420D7E9348970
:1043100042464B469118B9645B41FB64D7E91223CE
:10432000414612EB010A494643EB010B4FF00002F4
:104330004FF000034FEACB0343EA5A734FEACA0235
:1043400092469B4643461AEB0303C7F8C8304B46D8
:104350004BEB0303C7F8CC30D7F8F4305B6800228E
:10436000C7F8C030C7F8C420D7E930120B46DB18B5
:104370003B64134642EB03037B64D7E91023D7E980
:104380003201FCF719FC02460B4611463B4BA3FBDE
:1043900001235B09642202FB03F3CB1ADB0003F168
:1043A0003202364BA3FB02235B095B0003F4F87374
:1043B0001C44D7F8FC300022C7F8B830C7F8BC203E
:1043C000D7E92E8942464B469118B9635B41FB639E
:1043D000D7E90E2341465118396349464B417B6367
:1043E0004FF000024FF00003D7E90CAB5946CB0069
:1043F000514643EA51735146CA00104619460346D6
:1044000042469B18C7F8B0304B460A4642EB0303BE
:10441000C7F8B430D7F8F4305B680022C7F8A8308A
:10442000C7F8AC20D7E92A120B46DB18BB6213464B
:1044300042EB0303FB62D7E90A23D7E92C01FCF71F
:10444000BBFB02460B460D4BA3FB02135B09642129
:1044500001FB03F3D31ADB003233084AA2FB032328
:104460005B0903F00702D7F8F4301B6822449A6016
:1044700006E100BF00100140001401401F85EB5110
:10448000D7F8FC300022C7F8A030C7F8A420D7E93D
:10449000288942464B46911839625B417B62D7E9D5
:1044A000082341465418494643EB01054FF00002EA
:1044B0004FF00003EB0043EA5473E20014461D463C
:1044C0004346E318C7F898304B4645EB0303C7F85B
:1044D0009C30D7F8F4305B680022C7F89030C7F8FA
:1044E00094204FF000024FF00003D7E924452946FD
:1044F0008B00214643EA917321468A00D7E92601C1
:10450000FCF75AFB02460B46604BA3FB02235B09F8
:104510001C01D7F8FC300022C7F88830C7F88C207F
:10452000D7E9228942464B469118B9615B41FB614C
:10453000D7E9062341465118396149464B417B6111
:104540004FF000024FF00003D7E904AB5946CB000F
:10455000514643EA51735146CA0010461946034674
:1045600042469B18C7F880304B460A4642EB03038D
:10457000C7F88430D7F8F4305B680022BB67FA676D
:104580004FF000024FF00003D7E91E8949468B0027
:10459000414643EA917341468A00D7E92001FCF77E
:1045A0000BFB02460B461146384BA3FB01235B096C
:1045B000642202FB03F3CB1A1B013233334AA2FB02
:1045C00003235B0903F0F0031C44D7F8FC300022FE
:1045D0003B677A67D7E91C8942464B469118B96018
:1045E0005B41FB60D7E902234146511839604946D7
:1045F0004B417B604FF000024FF00003D7E900AB66
:104600005946CB00514643EA51735146CA00104601
:104610001946034642469B18BB664B460A4642EB88
:104620000303FB66D7F8F4305B6800223B667A66CA
:104630004FF000024FF00003D7E9188949468B007C
:10464000414643EA917341468A00D7E91A01FCF7D3
:10465000B3FA02460B460D4BA3FB02135B09642120
:1046600001FB03F3D31A1B013233084AA2FB0323D5
:104670005B0903F00F02D7F8F4301B6822449A60FC
:1046800000BF07F58077BD46BDE8B08F1F85EB51B1
:104690002DE9FF4757EC106B002F0C4619463B469F
:1046A000BBBF07F100431F4600232D230B700D9B5A
:1046B000DDF830A0914623F02008BCBF32461646F4
:1046C000B8F1460F05D0B8F1450F00D101340221F1
:1046D00000E0032103AB019302AB009347EC106BA6
:1046E0005346224600F03CFFB8F1470F054619D16A
:1046F00019F0010F0ED000EB040900220023304610
:104700003946FCF7E9F908B1CDF80C903022039B4B
:104710004B451ED3039B0E9A5B1B2846136004B0C7
:10472000BDE8F087B8F1460F00EB0409E5D1037846
:10473000302B0AD10022002330463946FCF7CCF951
:1047400018B9C4F10104CAF80040DAF800309944FD
:10475000D3E7591C03911A70D9E7F7B50029BABFFE
:1047600049422D232B2309290270437029DD0DF1C5
:1047700007031D460A271A46B1FBF7F607FB161476
:10478000303402F8014C0C46632C03F1FF33314600
:10479000F1DC3031941E03F8011C411C2346AB426E
:1047A0000AD30DF109039B1AAC4288BF00230233E0
:1047B0000344181A03B0F0BD13F8016B01F8016F40
:1047C000EDE7302330318370C170031DF1E7000045
:1047D0002DE9F04F8DB00C46DDF8588016461F4687
:1047E000054600F0BDFD036804931846FBF748FD3D
:1047F00000230A93D8F800300590073323F007030D
:1048000003F1080294F818A0D4F800B0C8F800200A
:10481000D3E9008929F000430793CDF81880C4E953
:104820001289DDE906019C4B4FF0FF32FCF786F957
:1048300070BBDDE90601984B4FF0FF32FCF760F9E1
:1048400030BB0022002340464946FCF74FF910B127
:104850002D2384F84330914A914BBAF1470F8CBF16
:1048600090469846032323612BF0040323604FF006
:104870000009009733460BAA2146284600F0D2F9DA
:10488000013040F08D804FF0FF300DB0BDE8F08F6B
:1048900042464B4640464946FCF750F940B14B462C
:1048A000002BBCBF2D2384F843307E4A7E4BD4E7D7
:1048B00063680AF0DF0206925A1C3BD1062363604C
:1048C0004BF480620023226003930AABCDE901A37D
:1048D00009AB0093616849EC108B0DF12303284666
:1048E000FFF7D6FE069B0999472B804629D1C81CA5
:1048F00002DB6368994241DDAAF1020A5FFA8AFA93
:104900000139524604F150000991FFF726FF0A9A37
:104910001318012A8146236102DC2268D20701D5DF
:10492000013323619DF82330002BA2D02D2384F87E
:1049300043309EE7069A472AC2D1002BC0D10123FB
:10494000BDE7BAF1650FDBD9BAF1660F18D10029BE
:1049500063680BDD216113B92268D00702D50133EA
:104960000B442361A1654FF00009DBE713B922680E
:10497000D20701D50233F4E70123F2E74FF0670ACB
:104980000A9B994205DB23682161D807EAD54B1CB5
:10499000E7E70029D4BFC1F1020201221344E0E796
:1049A00023685A0507D42369424631462846B8474A
:1049B00001302BD167E7BAF1650F40F2DD80D4E911
:1049C000120100220023FCF787F8002833D0374A71
:1049D000012331462846B84701303FF454AFDDE9A2
:1049E0000938434502DB2368D8070FD5DDE90423E6
:1049F00031462846B84701303FF445AF4FF0000933
:104A000008F1FF3804F11A0AC84509DC23689B073E
:104A100000F10381E0680B9B9842B8BF184634E769
:104A20000123524631462846B84701303FF42BAFA8
:104A300009F10109E8E7099B002B39DC1B4A012336
:104A400031462846B84701303FF41DAFDDE909394A
:104A500059EA030302D12368D907D7D5DDE9042336
:104A600031462846B84701303FF40DAF4FF0000AF9
:104A700004F11A0B099B5B42534501DC4B4693E75B
:104A800001235A4631462846B84701303FF4FBAE71
:104A90000AF1010AEEE700BFFFFFEF7F787200081E
:104AA00074720008807200087C720008847200082A
:104AB000A36DDDF828A05345A8BF5346002B9946A7
:104AC00036DC4FF0000B29EAE97904F11A02A36DF4
:104AD0000693A3EB09035B4531DC099B9A453ADC5D
:104AE0002368DA0737D4099BAAEB0309069BAAEBD4
:104AF00003039945A8BF9946B9F1000F33DC4FF085
:104B0000000829EAE97904F11A0B099BAAEB0303CF
:104B1000A3EB090343457FF779AF01235A4631469A
:104B20002846B84701303FF4AEAE08F10108ECE783
:104B3000424631462846B8470130C2D1A3E6012398
:104B4000314628460692B84701303FF49CAE069A9B
:104B50000BF1010BBBE7DDE9042331462846B847DA
:104B60000130C0D18FE6069A4B4642443146284672
:104B7000B8470130C3D186E6DDF828A0BAF1010FAD
:104B800001DCDB0736D50123424631462846B847CB
:104B900001303FF478AEDDE9042331462846B847BA
:104BA00001303FF470AED4E91201002200230AF173
:104BB000FF3AFBF791FFC0B9534608F101023146B5
:104BC0002846B84701300CD15DE601235A463146EC
:104BD0002846B84701303FF456AE08F10108D045E9
:104BE000F3DB4B4604F15002DFE64FF0000804F11E
:104BF0001A0BF4E701234246E1E701234A46314616
:104C00002846B84701303FF43EAE08F10108E3689A
:104C10000B995B1A4345F0DCFCE64FF0000804F109
:104C20001909F4E72DE9F047164698468A680B699A
:104C3000DDF820909342B8BF1346336091F84320CB
:104C400007460C460AB1013333602368990642BF18
:104C5000336802333360256815F0060506D104F188
:104C6000190AE36832689B1AAB4226DC94F8433099
:104C70002268003B18BF012392062BD404F14302A3
:104C800041463846C84701301ED02368226903F0E8
:104C90000603042B02BFE5683368ED1AA3680CBF56
:104CA00025EAE57500259342C4BF9B1AED1800263E
:104CB0001A34B5421AD1002008E001235246414679
:104CC0003846C847013003D14FF0FF30BDE8F087C8
:104CD0000135C6E7E1185A1C302081F84300224410
:104CE00094F8451082F843100233C7E701232246A7
:104CF00041463846C8470130E6D00136D9E70000C2
:104D00002DE9FF470F7E0C9E782F914680460C467A
:104D10009A4601F1430207D8622F0AD8002F00F00B
:104D2000D180582F00F0B88004F1420684F8427018
:104D30003AE0A7F16303152BF6D801A151F823F04F
:104D4000994D0008AD4D0008294D0008294D000877
:104D5000294D0008294D0008AD4D0008294D0008D7
:104D6000294D0008294D0008294D0008AB4E0008C8
:104D7000D74D0008654E0008294D0008294D000850
:104D8000CD4E0008294D0008D74D0008294D0008D8
:104D9000294D00086D4E000833681A1D1B683260EB
:104DA00004F1420684F8423001239CE03368206815
:104DB000191D3160060601D51D6803E04506FBD5C7
:104DC000B3F90050002D03DA2D236D4284F84330EF
:104DD00058480A2311E021683368080653F8045B39
:104DE00002D4490648BFADB26F2F5248336014BF9A
:104DF0000A230823002184F843106668A660002E69
:104E000005DB21682E4321F0040121604BD01646BA
:104E1000B5FBF3F103FB1157C75D06F8017D2F4683
:104E2000BB420D46F4D9082B0BD12368DF0708D508
:104E3000236961689942DEBF302306F8013C06F120
:104E4000FF36921B2261CDF800A04B4603AA2146F3
:104E50004046FFF7E7FE01304AD14FF0FF3004B083
:104E6000BDE8F087236843F02003236032487827A9
:104E700084F84570236831681F0651F8045B02D43A
:104E80005F0648BFADB23160D90744BF43F020038D
:104E900023601DB11023ADE72648E9E7236823F01E
:104EA00020032360F6E71646BDE73368256861698D
:104EB000181D30602E061B6801D5196002E06806D7
:104EC000FBD51980002323611646BCE733681A1D01
:104ED00032601E68626800213046FBF781F908B134
:104EE000801B606063682361002384F84330AAE775
:104EF0002369324649464046D0470130ADD0236849
:104F00009B0713D4E068039B9842B8BF1846A6E7F6
:104F10000123324649464046D04701309DD00135F5
:104F2000E36803995B1AAB42F2DCEBE7002504F17E
:104F30001906F5E78672000897720008002310B57D
:104F40000446C0E90033C0E90433836081814366CD
:104F5000C2818361194608225C3000F0F9F90D4BDB
:104F600063620D4BA3620D4BE3620D4B23630D4B4C
:104F700024629C4206D003F16802944202D0D033EE
:104F80009C4205D104F15800BDE8104000F05CBA25
:104F900010BD00BFA1510008C3510008FB5100081B
:104FA0001F520008F4020020024A0349034800F09F
:104FB00069B800BF0C000020816D00081C000020B3
:104FC00041680C4B994210B5044601D001F0D8FE5F
:104FD000A168094B994202D0204601F0D1FEE16858
:104FE000064B994204D02046BDE8104001F0C8BEEF
:104FF00010BD00BFF40200205C030020C4030020A9
:1050000010B50B4B0B4C0C4A1A60204600220421B1
:10501000FFF794FF04F1680001220921FFF78EFFDA
:1050200004F1D0000222BDE810401221FFF786BF34
:105030002C040020F4020020A94F0008014800F0D1
:1050400004BA00BF35040020014800F0FFB900BFDA
:105050003504002010B50446FFF7F0FF236A1BB1AA
:10506000BDE81040FFF7F0BF044B2362044B1B6800
:10507000002BF5D1FFF7C4FFF2E700BFC14F0008D6
:105080002C0400202DE9F8430746884614460026E4
:10509000D4E90195B9F1010905D52468002CF7D1AF
:1050A0003046BDE8F883AB89012B07D9B5F90E303E
:1050B000013303D029463846C04706436835E9E73F
:1050C0000FB407B5064904AB086853F8042B816890
:1050D000019301F0B9FC03B05DF804EB04B0704734
:1050E00018000020036A70B5846805460E460BB9A7
:1050F000FFF7B0FF636EDB0705D4A389980502D4E0
:10510000A06D00F0A2F9A389190702D52369002B2D
:1051100035D12146284600F0C5F880B34FF0FF3561
:10512000636EDA0705D4A3899B0502D4A06D00F055
:105130008DF9284670BD002B04DAA2699A4217DC6B
:105140000A2915D023685A1C22601970A36816F822
:10515000011F013BA3600029EDD1002B11DA22468B
:105160000A21284600F05FF80130D7D00A25D7E79A
:105170002246284600F057F80130E7D1CEE7013E3D
:10518000E4E723685A1C22600A221A70EEE7000046
:10519000024B01461868FFF7A5BF00BF18000020AA
:1051A00010B50C46B1F90E1000F000F90028ABBFA5
:1051B000636DA3891B1823F48053ACBF6365A3817F
:1051C00010BD2DE9F0411F468B89DB0505460C46D5
:1051D000164605D5B1F90E100223002200F0D4F8CE
:1051E000A389B4F90E1023F48053A38132463B46C1
:1051F0002846BDE8F04100F0EBB810B50C46B1F917
:105200000E1000F0C1F8431CA38915BF606523F49C
:10521000805343F48053A38118BFA38110BDB1F91B
:105220000E1000F0A1B8F8B50E461446054618B1A8
:10523000036A0BB9FFF70EFFA369A360A3891A07DE
:1052400001D5236943B92146284600F02BF818B14F
:105250004FF0FF373846F8BD23682269981A636912
:10526000F6B28342374605DC2146284601F088FD28
:105270000028EDD1A368013BA36023685A1C22607B
:105280001E706269431C9A4204D0A389DB07E1D5F2
:105290000A2EDFD12146284601F072FD0028D9D020
:1052A000D6E7000038B5294B054618680C4618B1FA
:1052B000036A0BB9FFF7CEFEB4F90C30190722D4FC
:1052C000DA0607D409222A6043F04003A3814FF095
:1052D000FF3033E0580712D5616B41B104F144034C
:1052E000994202D0284600F00BFF00236363A38994
:1052F00023F02403A3810023636023692360A3892F
:1053000043F00803A38123694BB9A38903F42073F5
:10531000B3F5007F03D02146284601F07FFDB4F9A4
:105320000C3013F001020AD00022A26062695242DE
:10533000A261226942B913F08000C5D138BD990736
:1053400058BF6269A260F4E70020F7E71800002068
:1053500002440346934200D1704703F8011BF9E76A
:10536000004870475801002038B5064D0023044618
:1053700008462B60FCF7E2FB431C02D12B6803B10B
:10538000236038BD3004002038B5074D0446084678
:10539000114600222A601A46FCF7F7FB431C02D193
:1053A0002B6803B1236038BD3004002038B5074DA9
:1053B00004460846114600222A601A46FCF785FB7F
:1053C000431C02D12B6803B1236038BD3004002098
:1053D00038B5074D04460846114600222A601A4691
:1053E000FCF790FB431C02D12B6803B1236038BD4E
:1053F00030040020014B1868704700BF18000020DF
:1054000070B50D4D0D4C641BA4100026A64209D1A9
:105410000B4D0C4C01F02EFE641BA4100026A6427E
:1054200005D170BD55F8043B98470136EEE755F8B5
:10543000043B98470136F2E7F4750008F47500085C
:10544000F4750008F87500087047704770472DE93B
:10545000F74F03690C69A34207467EDB013C01F16B
:105460001408A30000F11405009305EB84030193D5
:1054700058F8243055F8242001339A4208EB840967
:10548000B2FBF3F62ED34FF0000AC446AE46D34625
:105490005CF8043B98B206FB00A0020C1B0C06FB58
:1054A0000323DEF8002080B292B2121A5A44DEF8CA
:1054B00000004FEA134A9BB2C3EB224303EB1043B5
:1054C00092B242EA0342E1454EF8042B4FEA234BE5
:1054D000DED2009BEB582BB9019B043B9D421A4640
:1054E0002FD33C61384601F07DF9002825DB2946A1
:1054F000002058F8042BD1F800C01FFA82FE1FFAD2
:105500008CF3A3EB0E030344120CC2EB234202EB19
:105510001C429BB243EA0243C14541F8043B4FEAB7
:105520002240E6D255F8242005EB840322B9043B3F
:105530009D421A460BD33C610136304603B0BDE8AC
:10554000F08F1268043B002ACBD1013CC6E71268F9
:10555000043B002AEFD1013CEAE70020EEE700001F
:105560002DE9F04FC76997B08DED040B55EC104B4A
:10557000209E079181460C9211937FB9102000F074
:1055800009FE0246C9F81C0020B9A94BEF21A94821
:1055900001F0C0FCC0E901770760C760D9F81C3092
:1055A000196859B15A684A60012393408B60484694
:1055B00000F0E6FED9F81C3000221A602B1EB9BF9D
:1055C00023F00043059300233360059F9A4BBCBF33
:1055D00001223260BB4312D1119A42F20F73136061
:1055E000C7F31303234300F05A85219BDFF85CA225
:1055F000002B00F05C850AF1030300F056BD9DED21
:10560000047B002251EC170B00238DED0A7BFBF786
:1056100063FA804658B1119A01231360219B13B19C
:10562000219A864B1360DFF828A200F040BD9DED63
:105630000A0B14AA15A9484601F084F9C7F30A56C3
:105640000290002E78D00B9BCDF84880C3F3130353
:10565000DDE90A0143F07F5343F44013A6F2FF361D
:1056600019460022764BFAF717FE6BA3D3E9002305
:10567000FAF7CAFF6AA3D3E90023FAF70FFE04463C
:1056800030460D46FAF756FF67A3D3E90023FAF731
:10569000BBFF02460B4620462946FAF7FFFD0446AB
:1056A0000D46FBF761FA00220746002320462946F3
:1056B000FBF71CFA40B13846FAF73CFF22462B466E
:1056C000FBF70AFA00B9013F162F52D85D4B03EBE6
:1056D000C703D3E90023DDE90A01FBF707FA002835
:1056E00049D0013F00231093149B9B1B5A1E45BFBA
:1056F000C3F10103009300230023069254BF0093DB
:105700000693002F39DB069B0D973B44069300233D
:105710000893079B092B63D8052BC4BF043B079351
:10572000079BA3F10203CCBF00240124032B63D801
:10573000DFE803F05254372BDDE914631E4406F210
:105740003243202BC1BFC3F140039F4006F21243F6
:1057500024FA03F3D6BFC3F1200347EA030004FA97
:1057600003F0FAF7D7FE0122A1F1F873013E12927D
:1057700076E70123B7E71090B6E7009BDB1B0093A9
:105780007B42089300230D93C3E7012309930C9BED
:1057900007EB030B0BF10103012B0393B8BF0123AC
:1057A00006E0012309930C9B002B28DD9B46039305
:1057B000D9F81C000021042202F114059D4226D9CB
:1057C0004160484600F09CFD8246002842D11E4BB5
:1057D000024640F2AF11DAE60023E3E70023D5E703
:1057E00001240023079309944FF0FF3B0022CDF8DA
:1057F0000CB012230C92DBE701230993F4E74FF07E
:10580000010BCDF80CB05B46CDF830B0D0E70131DC
:105810005200D1E7AFF3008061436F63A787D23FA7
:10582000B3C8608B288AC63FFB799F501344D33F8F
:10583000B5720008CC7200080000F07F8572000885
:105840000000F83F2074000824730008B1720008BB
:1058500084720008D9F81C301860039B0E2B00F2EC
:10586000A180002C00F09E80002F33DD9C4B07F0C0
:105870000F0203EBC20393ED007BF8058DED0E7B69
:105880004FEA271416D5974BDDE90A01D3E908231F
:10589000FAF7E4FFCDE9040104F00F040326914D6B
:1058A00054B9DDE90E23DDE90401FAF7D7FFCDE9AC
:1058B000040128E00226F2E7E10708D5DDE90E0140
:1058C000D5E90023FAF7A0FECDE90E0101366410F8
:1058D0000835E5E700F0AF807C42814B814D04F054
:1058E0000F0203EBC203D3E90023DDE90A01FAF753
:1058F0008BFECDE90401241100230226002C40F088
:105900008F80002BD3D1109BDDE90445002B00F0E4
:105910009480754B002220462946FBF7E7F80028C3
:1059200000F08B80039B002B00F08780BBF1000F01
:1059300034DD20466D4B00222946FAF765FECDE99D
:10594000040107F1FF3801365C463046FAF7F2FDF4
:10595000DDE90423FAF758FE654B0022FAF79EFCB6
:105960000546A1F15076002C6AD1DDE90401614BB6
:105970000022FAF791FC02460B46CDE904232A46A1
:105980003346FBF7D1F8002840F09882DDE90401A6
:105990002A4606F10043FBF7A9F838BBDDE90A34D3
:1059A000CDE90434159B002BC0F257810E2F00F374
:1059B00054814B4B03EBC70393ED007B0C9B002BF7
:1059C0008DED007B80F2E580039B002B00F3E180EE
:1059D0000CD1484B002251EC170BFAF715FEDDE90C
:1059E0000423FBF797F8002800F066820024254680
:1059F0000C9B56466FEA030800272146484600F0F4
:105A0000BFFC002D00F0BD802FB1AF4203D039465E
:105A1000484600F0B5FC2946484600F0B1FCB0E02D
:105A2000E20705D5D5E90023FAF7EEFD013601239B
:105A30006410083562E7022665E7039CB84684E7F0
:105A4000274B099903EBC40353E90223544400296B
:105A500054D029490020FAF701FF33462A46FAF7C5
:105A60001BFCCDE90E015646DDE90401FBF77CF88D
:105A70000546FAF75FFD02460B46DDE90401FAF739
:105A80000BFC303502460B46CDE9042306F8015BDA
:105A9000DDE90E23FBF72AF8002872D1DDE90423A3
:105AA00011490020FAF7F8FBDDE90E23FBF71EF899
:105AB000002840F0B480A6423FF470AFDDE90E014B
:105AC0000A4B0022FAF7A0FD084BCDE90E01002297
:105AD000DDE90401FAF798FDCDE90401C4E700BF50
